:100000000C9434000C9446000C9446000C9486002A
:100010000C9495000C94A4000C9446000C9446009B
:100020000C9446000C9446000C9446000C946E0010
:100030000C9446000C9446000C9446000C94460028
:100040000C9446000C9446000C9446000C94460018
:100050000C9446000C9446000C9446000C94460008
:100060000C9446000C94460011241FBECFEFD8E03C
:10007000DEBFCDBF11E0A0E0B1E001C01D92A23112
:10008000B107E1F70E946C030C94CE030C940000BE
:100090002A9A2A988EBD0DB407FEFDCF442341F065
:1000A000FB0181918EBD0DB407FEFDCF4150C9F714
:1000B0002A9A08954AE067E071E080E00C944800D5
:1000C0005E9840911101BC0180E20E9448005C9A58
:1000D0005E9A5F9A4A9BFECF5E9808951F920F9298
:1000E0000FB60F9211248F93EF93FF93E1E8F0E0A6
:1000F0008081887F808381E080930001FF91EF9170
:100100008F910F900FBE0F901F9018951F920F9216
:100110000FB60F9211248F9381E0809301018F918C
:100120000F900FBE0F901F9018951F920F920FB651
:100130000F9211248F9381E0809301018F910F9092
:100140000FBE0F901F9018951F920F920FB60F922F
:1001500011248F9381E0809301018F910F900FBE46
:100160000F901F901895CF92DF92EF92FF920F930E
:100170001F93CF93DF93CDB7DEB728970FB6F894D0
:10018000DEBF0FBECDBF8C0185EA8D838E838F834A
:1001900088878AE589838A838B838C83229A84B1BA
:1001A000886284B924982C9883E58CBD8DB58E7FA8
:1001B0008DBD8CB58C7F8CBD8CB58CBD8DB58E7F87
:1001C0008DBD8DB581608DBD229A2A9A549A569A1A
:1001D000579A2098559852988AE680930701809103
:1001E0000801807C8C6080930801809109018878E7
:1001F00083638093090180910A01807C80618093F0
:100200000A0140E1F42EF092110180910B01807CF3
:10021000806180930B018BE1809310015E985F9A5F
:100220000E945A0080910A01807C806180930A01BB
:10023000F092110180910B01807C806180930B0111
:100240000E945A0080910901887884648093090192
:100250000E945A0020910901E22EF12CF594E794B6
:10026000F594E794F594E794F594E79487E0E82211
:10027000FF24C70182959295907F9827807F9827C9
:10028000922F9F78982B909309010E945A004E2D2F
:10029000BE016F5F7F4F82E20E944800809109019A
:1002A000282F277099F080E0E82FEB5FF0E0E95FFE
:1002B000FE4FA5E0B0E0AC0FBD1FA80FB11D9C9193
:1002C00090838F5F8213F0CF80910901887F822B0A
:1002D000809309010E945A005E985F9AF801F280AB
:1002E000F0920201F1FE0DC052985A988091680078
:1002F00084608093680080916D00846080936D00BD
:10030000F28035E0E32EEF20C9F0F801A081B18141
:1003100020E032E14AE750E00E94950320E030E01F
:1003200048E250E00E94A0033093040120930301AF
:100330008FE090E09093060180930501F3FC4CC0A0
:10034000E11046C0F1FC44C080E88093610088E081
:100350008093610000000000F801838183FF08C0E2
:100360001092C10080916400826080936400838158
:1003700081FF0DC0A89584B7877F84BF80916000FE
:1003800088618093600010926000F801838182FF91
:1003900004C080E880BFF801838180FF09C010920B
:1003A0007C0010927A0080916400816080936400E8
:1003B00080E028960FB6F894DEBF0FBECDBFDF9168
:1003C000CF911F910F91FF90EF90DF90CF90089504
:1003D00083B7817F83BFB8CFF8014481558166819F
:1003E0007781E42FC52ED62EE72EFF243C2DCB019E
:1003F000AA27BB27282F10920101442389F0F5B1C9
:100400004095F423F5B954B1542354B94091680090
:1004100041604093680040916B004E2B40936B000D
:10042000332389F048B1C0944C2148B947B14C21DD
:1004300047B94091680042604093680040916C0069
:10044000432B40936C00222389F03BB180953823E5
:100450003BB99AB198239AB98091680084608093DF
:10046000680080916D00822B80936D00F801F2800E
:1004700085E0E82EEF2064CF80E00895CF93DF93EE
:10048000CDB7DEB760970FB6F894DEBF0FBECDBF15
:1004900019821B821A829D838C834E835F836887B7
:1004A0007987CE0101960E94600080E060960FB6C9
:1004B000F894DEBF0FBECDBFDF91CF910895BF92FC
:1004C000CF92DF92EF92FF920F931F93CF93DF9320
:1004D000EC01A2E0EA2EBDE0FB2E14E2D12ECC24EA
:1004E000CA9403E010E8789420910201822F85706D
:1004F000C1F080910301909104011092810010924B
:10050000800090938900809388001092850010925B
:10051000840010928200E0926F0010920001F0922D
:10052000810021FF03C05C985E9A5F9A83B78E7F3B
:1005300083BF822F857021F08091000181112DC031
:10054000922F927021FF02C04A9974C023FF04C009
:1005500080910101811191C083B7816083BF85B70C
:10056000806685BF8F7D85BFF89480910201982FAA
:10057000957009F450C090910001992309F44BC083
:1005800078942091020183B78E7F83BF822F85707C
:10059000B9F280910001882399F210920001922F04
:1005A0009270F2E0BF2E992311F05E985F9A22FFBD
:1005B00027C0B1FE25C081E088831A8219821C837E
:1005C0000B83CE010E94600020910501309106014D
:1005D000109281001092800030938900209388004F
:1005E000109285001092840010928200E0926F00B9
:1005F00010920001F09281008091020180FF73CF80
:100600008B2DDF91CF911F910F91FF90EF90DF9095
:10061000CF90BF90089581FF02C04A99B1CF83FF68
:1006200004C0809101018111ABCF7894889520910D
:1006300002017CCF80916D008B7F80936D00809153
:1006400011012A9A2A98DEBC0DB407FEFDCF88233B
:1006500049F0FE01CEBC0DB407FEFDCF9EB59193CF
:100660008150C1F72A9A80916D00846080936D005B
:10067000922F9270E4E0BE2E96CF1092010178E0A6
:10068000B72E91CF8FEF08958FEF08958FEF0895D4
:1006900049B1487050E060E070E08AE290E00E946A
:1006A0003E0280E00895CF93DF93CDB7DEB7609729
:1006B0000FB6F894DEBF0FBECDBFCE0101960E94EB
:1006C0005F0283FFFACF0E944803CE0101960E9489
:1006D0005F0283FFF2CFF7CFCF93DF93CDB7DEB7C3
:1006E0002C970FB6F894DEBF0FBECDBFCE0101969A
:1006F0002CE0FC0111922A95E9F728E02B8340E0D9
:1007000050E068E070E04D835E836F8378872FEF61
:100710002C834FEE5EEB6DEA7EED49875A876B873F
:100720007C870E94B3000E9453030E94C203A59FCE
:10073000900DB49F900DA49F800D911D11240895DC
:10074000A1E21A2EAA1BBB1BFD010DC0AA1FBB1FD5
:10075000EE1FFF1FA217B307E407F50720F0A21B47
:10076000B30BE40BF50B661F771F881F991F1A94B4
:1007700069F760957095809590959B01AC01BD01DE
:10078000CF010895A29FB001B39FC001A39F01D0E4
:10079000B29F700D811D1124911D0895F894FFCF13
:00000001FF
